{
  "_format": "hh-sol-artifact-1",
  "contractName": "Crowdfunding",
  "sourceName": "contracts/Crowdfunding.sol",
  "abi": [
    {
      "inputs": [],
      "stateMutability": "nonpayable",
      "type": "constructor"
    },
    {
      "anonymous": false,
      "inputs": [
        {
          "indexed": true,
          "internalType": "address",
          "name": "creator",
          "type": "address"
        },
        {
          "components": [
            {
              "internalType": "address",
              "name": "creator",
              "type": "address"
            },
            {
              "internalType": "string",
              "name": "name",
              "type": "string"
            },
            {
              "internalType": "string",
              "name": "description",
              "type": "string"
            },
            {
              "internalType": "address",
              "name": "benefactor",
              "type": "address"
            },
            {
              "internalType": "uint256",
              "name": "goal",
              "type": "uint256"
            },
            {
              "internalType": "uint256",
              "name": "duration",
              "type": "uint256"
            },
            {
              "internalType": "uint256",
              "name": "amountRaised",
              "type": "uint256"
            },
            {
              "internalType": "bool",
              "name": "ended",
              "type": "bool"
            }
          ],
          "indexed": false,
          "internalType": "struct Crowdfunding.Campaign",
          "name": "",
          "type": "tuple"
        }
      ],
      "name": "CampaignCreated",
      "type": "event"
    },
    {
      "anonymous": false,
      "inputs": [
        {
          "indexed": false,
          "internalType": "uint256",
          "name": "index",
          "type": "uint256"
        },
        {
          "indexed": false,
          "internalType": "address",
          "name": "benefactor",
          "type": "address"
        },
        {
          "indexed": false,
          "internalType": "uint256",
          "name": "amount",
          "type": "uint256"
        }
      ],
      "name": "CampaignEnded",
      "type": "event"
    },
    {
      "anonymous": false,
      "inputs": [
        {
          "indexed": true,
          "internalType": "address",
          "name": "donor",
          "type": "address"
        },
        {
          "indexed": false,
          "internalType": "uint256",
          "name": "amount",
          "type": "uint256"
        },
        {
          "indexed": false,
          "internalType": "uint256",
          "name": "campaign",
          "type": "uint256"
        }
      ],
      "name": "Donation",
      "type": "event"
    },
    {
      "inputs": [],
      "name": "CheckContractBalance",
      "outputs": [
        {
          "internalType": "uint256",
          "name": "",
          "type": "uint256"
        }
      ],
      "stateMutability": "view",
      "type": "function"
    },
    {
      "inputs": [
        {
          "internalType": "uint256",
          "name": "",
          "type": "uint256"
        }
      ],
      "name": "campaigns",
      "outputs": [
        {
          "internalType": "address",
          "name": "creator",
          "type": "address"
        },
        {
          "internalType": "string",
          "name": "name",
          "type": "string"
        },
        {
          "internalType": "string",
          "name": "description",
          "type": "string"
        },
        {
          "internalType": "address",
          "name": "benefactor",
          "type": "address"
        },
        {
          "internalType": "uint256",
          "name": "goal",
          "type": "uint256"
        },
        {
          "internalType": "uint256",
          "name": "duration",
          "type": "uint256"
        },
        {
          "internalType": "uint256",
          "name": "amountRaised",
          "type": "uint256"
        },
        {
          "internalType": "bool",
          "name": "ended",
          "type": "bool"
        }
      ],
      "stateMutability": "view",
      "type": "function"
    },
    {
      "inputs": [
        {
          "internalType": "string",
          "name": "_name",
          "type": "string"
        },
        {
          "internalType": "string",
          "name": "_description",
          "type": "string"
        },
        {
          "internalType": "address",
          "name": "_benefactor",
          "type": "address"
        },
        {
          "internalType": "uint256",
          "name": "_goal",
          "type": "uint256"
        },
        {
          "internalType": "uint256",
          "name": "_duration",
          "type": "uint256"
        }
      ],
      "name": "createCampaign",
      "outputs": [],
      "stateMutability": "nonpayable",
      "type": "function"
    },
    {
      "inputs": [
        {
          "internalType": "uint256",
          "name": "_i",
          "type": "uint256"
        }
      ],
      "name": "donate",
      "outputs": [],
      "stateMutability": "payable",
      "type": "function"
    },
    {
      "inputs": [
        {
          "internalType": "uint256",
          "name": "_i",
          "type": "uint256"
        }
      ],
      "name": "endCampaign",
      "outputs": [],
      "stateMutability": "nonpayable",
      "type": "function"
    },
    {
      "inputs": [
        {
          "internalType": "uint256",
          "name": "_i",
          "type": "uint256"
        }
      ],
      "name": "getCampaignBalance",
      "outputs": [
        {
          "internalType": "uint256",
          "name": "",
          "type": "uint256"
        }
      ],
      "stateMutability": "view",
      "type": "function"
    },
    {
      "inputs": [],
      "name": "getCampaignCount",
      "outputs": [
        {
          "internalType": "uint256",
          "name": "",
          "type": "uint256"
        }
      ],
      "stateMutability": "view",
      "type": "function"
    },
    {
      "inputs": [
        {
          "internalType": "uint256",
          "name": "_i",
          "type": "uint256"
        }
      ],
      "name": "getCampaignDetails",
      "outputs": [
        {
          "components": [
            {
              "internalType": "address",
              "name": "creator",
              "type": "address"
            },
            {
              "internalType": "string",
              "name": "name",
              "type": "string"
            },
            {
              "internalType": "string",
              "name": "description",
              "type": "string"
            },
            {
              "internalType": "address",
              "name": "benefactor",
              "type": "address"
            },
            {
              "internalType": "uint256",
              "name": "goal",
              "type": "uint256"
            },
            {
              "internalType": "uint256",
              "name": "duration",
              "type": "uint256"
            },
            {
              "internalType": "uint256",
              "name": "amountRaised",
              "type": "uint256"
            },
            {
              "internalType": "bool",
              "name": "ended",
              "type": "bool"
            }
          ],
          "internalType": "struct Crowdfunding.Campaign",
          "name": "",
          "type": "tuple"
        }
      ],
      "stateMutability": "view",
      "type": "function"
    },
    {
      "inputs": [],
      "name": "getUserCampaigns",
      "outputs": [
        {
          "components": [
            {
              "internalType": "address",
              "name": "creator",
              "type": "address"
            },
            {
              "internalType": "string",
              "name": "name",
              "type": "string"
            },
            {
              "internalType": "string",
              "name": "description",
              "type": "string"
            },
            {
              "internalType": "address",
              "name": "benefactor",
              "type": "address"
            },
            {
              "internalType": "uint256",
              "name": "goal",
              "type": "uint256"
            },
            {
              "internalType": "uint256",
              "name": "duration",
              "type": "uint256"
            },
            {
              "internalType": "uint256",
              "name": "amountRaised",
              "type": "uint256"
            },
            {
              "internalType": "bool",
              "name": "ended",
              "type": "bool"
            }
          ],
          "internalType": "struct Crowdfunding.Campaign[]",
          "name": "",
          "type": "tuple[]"
        }
      ],
      "stateMutability": "view",
      "type": "function"
    }
  ],
  "bytecode": "0x608060405234801561001057600080fd5b5033600060016101000a81548173ffffffffffffffffffffffffffffffffffffffff021916908373ffffffffffffffffffffffffffffffffffffffff160217905550612148806100616000396000f3fe6080604052600436106100865760003560e01c80639304d124116100595780639304d12414610150578063d993de6214610179578063dd0408ae146101b6578063eb044b97146101df578063f14faf6f1461021c57610086565b80630e274ae21461008b578063141961bc146100b65780636caa9218146100fa5780638d915ec214610125575b600080fd5b34801561009757600080fd5b506100a0610238565b6040516100ad91906114ba565b60405180910390f35b3480156100c257600080fd5b506100dd60048036038101906100d8919061151c565b61063c565b6040516100f19897969594939291906115c0565b60405180910390f35b34801561010657600080fd5b5061010f6107f1565b60405161011c919061164c565b60405180910390f35b34801561013157600080fd5b5061013a6107fe565b604051610147919061164c565b60405180910390f35b34801561015c57600080fd5b50610177600480360381019061017291906117c8565b610806565b005b34801561018557600080fd5b506101a0600480360381019061019b919061151c565b610a01565b6040516101ad9190611932565b60405180910390f35b3480156101c257600080fd5b506101dd60048036038101906101d8919061151c565b610c47565b005b3480156101eb57600080fd5b506102066004803603810190610201919061151c565b610fca565b604051610213919061164c565b60405180910390f35b6102366004803603810190610231919061151c565b610ff9565b005b60606000805b6001805490508110156102df573373ffffffffffffffffffffffffffffffffffffffff166001828154811061027657610275611954565b5b906000526020600020906008020160000160009054906101000a900473ffffffffffffffffffffffffffffffffffffffff1673ffffffffffffffffffffffffffffffffffffffff16036102d25781806102ce906119b2565b9250505b808060010191505061023e565b5060008167ffffffffffffffff8111156102fc576102fb611671565b5b60405190808252806020026020018201604052801561033557816020015b6103226111c9565b81526020019060019003908161031a5790505b5090506000805b600180549050811015610632573373ffffffffffffffffffffffffffffffffffffffff166001828154811061037457610373611954565b5b906000526020600020906008020160000160009054906101000a900473ffffffffffffffffffffffffffffffffffffffff1673ffffffffffffffffffffffffffffffffffffffff160361062557600181815481106103d5576103d4611954565b5b9060005260206000209060080201604051806101000160405290816000820160009054906101000a900473ffffffffffffffffffffffffffffffffffffffff1673ffffffffffffffffffffffffffffffffffffffff1673ffffffffffffffffffffffffffffffffffffffff16815260200160018201805461045590611a29565b80601f016020809104026020016040519081016040528092919081815260200182805461048190611a29565b80156104ce5780601f106104a3576101008083540402835291602001916104ce565b820191906000526020600020905b8154815290600101906020018083116104b157829003601f168201915b505050505081526020016002820180546104e790611a29565b80601f016020809104026020016040519081016040528092919081815260200182805461051390611a29565b80156105605780601f1061053557610100808354040283529160200191610560565b820191906000526020600020905b81548152906001019060200180831161054357829003601f168201915b505050505081526020016003820160009054906101000a900473ffffffffffffffffffffffffffffffffffffffff1673ffffffffffffffffffffffffffffffffffffffff1673ffffffffffffffffffffffffffffffffffffffff1681526020016004820154815260200160058201548152602001600682015481526020016007820160009054906101000a900460ff16151515158152505083838151811061060b5761060a611954565b5b60200260200101819052508180610621906119b2565b9250505b808060010191505061033c565b5081935050505090565b6001818154811061064c57600080fd5b90600052602060002090600802016000915090508060000160009054906101000a900473ffffffffffffffffffffffffffffffffffffffff169080600101805461069590611a29565b80601f01602080910402602001604051908101604052809291908181526020018280546106c190611a29565b801561070e5780601f106106e35761010080835404028352916020019161070e565b820191906000526020600020905b8154815290600101906020018083116106f157829003601f168201915b50505050509080600201805461072390611a29565b80601f016020809104026020016040519081016040528092919081815260200182805461074f90611a29565b801561079c5780601f106107715761010080835404028352916020019161079c565b820191906000526020600020905b81548152906001019060200180831161077f57829003601f168201915b5050505050908060030160009054906101000a900473ffffffffffffffffffffffffffffffffffffffff16908060040154908060050154908060060154908060070160009054906101000a900460ff16905088565b6000600180549050905090565b600047905090565b600081426108149190611a5a565b905060006040518061010001604052803373ffffffffffffffffffffffffffffffffffffffff1681526020018881526020018781526020018673ffffffffffffffffffffffffffffffffffffffff16815260200185815260200183815260200160008152602001600015158152509050600181908060018154018082558091505060019003906000526020600020906008020160009091909190915060008201518160000160006101000a81548173ffffffffffffffffffffffffffffffffffffffff021916908373ffffffffffffffffffffffffffffffffffffffff160217905550602082015181600101908161090c9190611c3a565b5060408201518160020190816109229190611c3a565b5060608201518160030160006101000a81548173ffffffffffffffffffffffffffffffffffffffff021916908373ffffffffffffffffffffffffffffffffffffffff1602179055506080820151816004015560a0820151816005015560c0820151816006015560e08201518160070160006101000a81548160ff02191690831515021790555050503373ffffffffffffffffffffffffffffffffffffffff167f0199227baeba96945fcb6c7dfd7a77454746430ffee6bfe9791bed764201e537826040516109f09190611932565b60405180910390a250505050505050565b610a096111c9565b60018281548110610a1d57610a1c611954565b5b9060005260206000209060080201604051806101000160405290816000820160009054906101000a900473ffffffffffffffffffffffffffffffffffffffff1673ffffffffffffffffffffffffffffffffffffffff1673ffffffffffffffffffffffffffffffffffffffff168152602001600182018054610a9d90611a29565b80601f0160208091040260200160405190810160405280929190818152602001828054610ac990611a29565b8015610b165780601f10610aeb57610100808354040283529160200191610b16565b820191906000526020600020905b815481529060010190602001808311610af957829003601f168201915b50505050508152602001600282018054610b2f90611a29565b80601f0160208091040260200160405190810160405280929190818152602001828054610b5b90611a29565b8015610ba85780601f10610b7d57610100808354040283529160200191610ba8565b820191906000526020600020905b815481529060010190602001808311610b8b57829003601f168201915b505050505081526020016003820160009054906101000a900473ffffffffffffffffffffffffffffffffffffffff1673ffffffffffffffffffffffffffffffffffffffff1673ffffffffffffffffffffffffffffffffffffffff1681526020016004820154815260200160058201548152602001600682015481526020016007820160009054906101000a900460ff1615151515815250509050919050565b3373ffffffffffffffffffffffffffffffffffffffff16600060019054906101000a900473ffffffffffffffffffffffffffffffffffffffff1673ffffffffffffffffffffffffffffffffffffffff1614610cd7576040517f08c379a0000000000000000000000000000000000000000000000000000000008152600401610cce90611d58565b60405180910390fd5b60008054906101000a900460ff1615610cef57600080fd5b60016000806101000a81548160ff021916908315150217905550600060018281548110610d1f57610d1e611954565b5b9060005260206000209060080201905042816005015410610d75576040517f08c379a0000000000000000000000000000000000000000000000000000000008152600401610d6c90611dc4565b60405180910390fd5b600073ffffffffffffffffffffffffffffffffffffffff168160030160009054906101000a900473ffffffffffffffffffffffffffffffffffffffff1673ffffffffffffffffffffffffffffffffffffffff1603610e08576040517f08c379a0000000000000000000000000000000000000000000000000000000008152600401610dff90611e30565b60405180910390fd5b60008160060154905060008111610e54576040517f08c379a0000000000000000000000000000000000000000000000000000000008152600401610e4b90611e9c565b60405180910390fd5b60018260070160006101000a81548160ff0219169083151502179055506000826006018190555060008260030160009054906101000a900473ffffffffffffffffffffffffffffffffffffffff1673ffffffffffffffffffffffffffffffffffffffff1682604051610ec590611eed565b60006040518083038185875af1925050503d8060008114610f02576040519150601f19603f3d011682016040523d82523d6000602084013e610f07565b606091505b5050905080610f4b576040517f08c379a0000000000000000000000000000000000000000000000000000000008152600401610f4290611f4e565b60405180910390fd5b7f245a9379f1ec03f73aaedf7ca0b37fb752d67159a6c6a87e0020d39174207ba6848460030160009054906101000a900473ffffffffffffffffffffffffffffffffffffffff1684604051610fa293929190611f6e565b60405180910390a150505060008060006101000a81548160ff02191690831515021790555050565b600060018281548110610fe057610fdf611954565b5b9060005260206000209060080201600601549050919050565b60006001828154811061100f5761100e611954565b5b906000526020600020906008020190506001805490508210611066576040517f08c379a000000000000000000000000000000000000000000000000000000000815260040161105d90611ff1565b60405180910390fd5b428160050154116110ac576040517f08c379a00000000000000000000000000000000000000000000000000000000081526004016110a390611dc4565b60405180910390fd5b600115158160070160009054906101000a900460ff16151503611104576040517f08c379a00000000000000000000000000000000000000000000000000000000081526004016110fb9061205d565b60405180910390fd5b80600601543482600601546111199190611a5a565b101561115a576040517f08c379a0000000000000000000000000000000000000000000000000000000008152600401611151906120c9565b60405180910390fd5b3481600601600082825461116e9190611a5a565b925050819055503373ffffffffffffffffffffffffffffffffffffffff167f106aac375bbcf013d1e52338bbf9e740009a1a3a6869f8daa1b72aa1620f5fec34846040516111bd9291906120e9565b60405180910390a25050565b604051806101000160405280600073ffffffffffffffffffffffffffffffffffffffff1681526020016060815260200160608152602001600073ffffffffffffffffffffffffffffffffffffffff1681526020016000815260200160008152602001600081526020016000151581525090565b600081519050919050565b600082825260208201905092915050565b6000819050602082019050919050565b600073ffffffffffffffffffffffffffffffffffffffff82169050919050565b600061129382611268565b9050919050565b6112a381611288565b82525050565b600081519050919050565b600082825260208201905092915050565b60005b838110156112e35780820151818401526020810190506112c8565b60008484015250505050565b6000601f19601f8301169050919050565b600061130b826112a9565b61131581856112b4565b93506113258185602086016112c5565b61132e816112ef565b840191505092915050565b6000819050919050565b61134c81611339565b82525050565b60008115159050919050565b61136781611352565b82525050565b600061010083016000830151611386600086018261129a565b506020830151848203602086015261139e8282611300565b915050604083015184820360408601526113b88282611300565b91505060608301516113cd606086018261129a565b5060808301516113e06080860182611343565b5060a08301516113f360a0860182611343565b5060c083015161140660c0860182611343565b5060e083015161141960e086018261135e565b508091505092915050565b6000611430838361136d565b905092915050565b6000602082019050919050565b60006114508261123c565b61145a8185611247565b93508360208202850161146c85611258565b8060005b858110156114a857848403895281516114898582611424565b945061149483611438565b925060208a01995050600181019050611470565b50829750879550505050505092915050565b600060208201905081810360008301526114d48184611445565b905092915050565b6000604051905090565b600080fd5b600080fd5b6114f981611339565b811461150457600080fd5b50565b600081359050611516816114f0565b92915050565b600060208284031215611532576115316114e6565b5b600061154084828501611507565b91505092915050565b61155281611288565b82525050565b600082825260208201905092915050565b6000611574826112a9565b61157e8185611558565b935061158e8185602086016112c5565b611597816112ef565b840191505092915050565b6115ab81611339565b82525050565b6115ba81611352565b82525050565b6000610100820190506115d6600083018b611549565b81810360208301526115e8818a611569565b905081810360408301526115fc8189611569565b905061160b6060830188611549565b61161860808301876115a2565b61162560a08301866115a2565b61163260c08301856115a2565b61163f60e08301846115b1565b9998505050505050505050565b600060208201905061166160008301846115a2565b92915050565b600080fd5b600080fd5b7f4e487b7100000000000000000000000000000000000000000000000000000000600052604160045260246000fd5b6116a9826112ef565b810181811067ffffffffffffffff821117156116c8576116c7611671565b5b80604052505050565b60006116db6114dc565b90506116e782826116a0565b919050565b600067ffffffffffffffff82111561170757611706611671565b5b611710826112ef565b9050602081019050919050565b82818337600083830152505050565b600061173f61173a846116ec565b6116d1565b90508281526020810184848401111561175b5761175a61166c565b5b61176684828561171d565b509392505050565b600082601f83011261178357611782611667565b5b813561179384826020860161172c565b91505092915050565b6117a581611288565b81146117b057600080fd5b50565b6000813590506117c28161179c565b92915050565b600080600080600060a086880312156117e4576117e36114e6565b5b600086013567ffffffffffffffff811115611802576118016114eb565b5b61180e8882890161176e565b955050602086013567ffffffffffffffff81111561182f5761182e6114eb565b5b61183b8882890161176e565b945050604061184c888289016117b3565b935050606061185d88828901611507565b925050608061186e88828901611507565b9150509295509295909350565b600061010083016000830151611894600086018261129a565b50602083015184820360208601526118ac8282611300565b915050604083015184820360408601526118c68282611300565b91505060608301516118db606086018261129a565b5060808301516118ee6080860182611343565b5060a083015161190160a0860182611343565b5060c083015161191460c0860182611343565b5060e083015161192760e086018261135e565b508091505092915050565b6000602082019050818103600083015261194c818461187b565b905092915050565b7f4e487b7100000000000000000000000000000000000000000000000000000000600052603260045260246000fd5b7f4e487b7100000000000000000000000000000000000000000000000000000000600052601160045260246000fd5b60006119bd82611339565b91507fffffffffffffffffffffffffffffffffffffffffffffffffffffffffffffffff82036119ef576119ee611983565b5b600182019050919050565b7f4e487b7100000000000000000000000000000000000000000000000000000000600052602260045260246000fd5b60006002820490506001821680611a4157607f821691505b602082108103611a5457611a536119fa565b5b50919050565b6000611a6582611339565b9150611a7083611339565b9250828201905080821115611a8857611a87611983565b5b92915050565b60008190508160005260206000209050919050565b60006020601f8301049050919050565b600082821b905092915050565b600060088302611af07fffffffffffffffffffffffffffffffffffffffffffffffffffffffffffffffff82611ab3565b611afa8683611ab3565b95508019841693508086168417925050509392505050565b6000819050919050565b6000611b37611b32611b2d84611339565b611b12565b611339565b9050919050565b6000819050919050565b611b5183611b1c565b611b65611b5d82611b3e565b848454611ac0565b825550505050565b600090565b611b7a611b6d565b611b85818484611b48565b505050565b5b81811015611ba957611b9e600082611b72565b600181019050611b8b565b5050565b601f821115611bee57611bbf81611a8e565b611bc884611aa3565b81016020851015611bd7578190505b611beb611be385611aa3565b830182611b8a565b50505b505050565b600082821c905092915050565b6000611c1160001984600802611bf3565b1980831691505092915050565b6000611c2a8383611c00565b9150826002028217905092915050565b611c43826112a9565b67ffffffffffffffff811115611c5c57611c5b611671565b5b611c668254611a29565b611c71828285611bad565b600060209050601f831160018114611ca45760008415611c92578287015190505b611c9c8582611c1e565b865550611d04565b601f198416611cb286611a8e565b60005b82811015611cda57848901518255600182019150602085019450602081019050611cb5565b86831015611cf75784890151611cf3601f891682611c00565b8355505b6001600288020188555050505b505050505050565b7f596f7520617265206e6f7420746865206f776e65720000000000000000000000600082015250565b6000611d42601583611558565b9150611d4d82611d0c565b602082019050919050565b60006020820190508181036000830152611d7181611d35565b9050919050565b7f43616d706169676e206475726174696f6e2068617320656c6170736564000000600082015250565b6000611dae601d83611558565b9150611db982611d78565b602082019050919050565b60006020820190508181036000830152611ddd81611da1565b9050919050565b7f42656e65666163746f7220646f6573206e6f7420657869737400000000000000600082015250565b6000611e1a601983611558565b9150611e2582611de4565b602082019050919050565b60006020820190508181036000830152611e4981611e0d565b9050919050565b7f4e6f2066756e647320746f207472616e73666572000000000000000000000000600082015250565b6000611e86601483611558565b9150611e9182611e50565b602082019050919050565b60006020820190508181036000830152611eb581611e79565b9050919050565b600081905092915050565b50565b6000611ed7600083611ebc565b9150611ee282611ec7565b600082019050919050565b6000611ef882611eca565b9150819050919050565b7f5472616e73666572206661696c65640000000000000000000000000000000000600082015250565b6000611f38600f83611558565b9150611f4382611f02565b602082019050919050565b60006020820190508181036000830152611f6781611f2b565b9050919050565b6000606082019050611f8360008301866115a2565b611f906020830185611549565b611f9d60408301846115a2565b949350505050565b7f496e76616c69642063616d706169676e20696e64657800000000000000000000600082015250565b6000611fdb601683611558565b9150611fe682611fa5565b602082019050919050565b6000602082019050818103600083015261200a81611fce565b9050919050565b7f546869732063616d706169676e2068617320656e646564000000000000000000600082015250565b6000612047601783611558565b915061205282612011565b602082019050919050565b600060208201905081810360008301526120768161203a565b9050919050565b7f4f766572666c6f772070726576656e7465640000000000000000000000000000600082015250565b60006120b3601283611558565b91506120be8261207d565b602082019050919050565b600060208201905081810360008301526120e2816120a6565b9050919050565b60006040820190506120fe60008301856115a2565b61210b60208301846115a2565b939250505056fea2646970667358221220bb3c9624a7c5b57e572e6554dc17666e094ccce82eb21d5d5667743084274bf864736f6c63430008180033",
  "linkReferences": {},
  "deployedLinkReferences": {}
}